:0A0000000C9478000C94B9000C94E5
:10000A00E2000C9400000C9400000C9400000C9484
:10001A0000000C9400000C9400000C9400000C9456
:10002A0000000C9400000C9400000C9400000C9446
:10003A0000000C9400000C9400000C9400000C9436
:10004A000B010C9400000C9400001027E8036400D4
:10005A000A00010000100001100001000000000069
:10006A00000000003200320023004C3A253264209E
:10007A00523A25326420543A253264002A4C3A25F1
:10008A00326420523A25326420543A2532642000E0
:10009A00204C3A2532642A523A25326420543A25B1
:1000AA0032642000204C3A25326420523A253264C8
:1000BA002A543A2532642000204C3A2532642052D0
:1000CA003A25326420543A2532642000080006009A
:1000DA00660001008B016E0001008C0170000100B6
:1000EA008D0172000000F894EE27ECBBF1E0FBBF33
:1000FA00EBBFE5BF8DE0A2E0BB27ED938A95E9F758
:10010A0080E094E0A0E6ED930197E9F7E6EDF0E0F0
:10011A0085919591009761F0A591B59105901590FB
:10012A00BF01F00105900D920197E1F7FB01F0CFB5
:10013A00EFE5EDBFE4E0EEBFC0E6D1E00C947B0250
:10014A00A0E09199A1E0E1E0EA2B11F4919801C0B5
:10015A00919A0895A0E09199A1E0E0E0EA2311F4D0
:10016A00919801C0919A08950E94C90551F4A091ED
:10017A008B01A33628F4E0918B01EF5FE0938B01AA
:10018A001BC0A0918A01A23051F4A0918C01A33620
:10019A0028F4E0918C01EF5FE0938C010DC0A091EF
:1001AA008A01A33049F4A0918D01A33628F4E09185
:1001BA008D01EF5FE0938D0139C00E94C90551F4AA
:1001CA00A0918B01A13028F0E0918B01E150E093DE
:1001DA008B011BC0A0918A01A23051F4A0918C011D
:1001EA00A13028F0E0918C01E150E0938C010DC020
:1001FA00A0918A01A33049F4A0918D01A13028F081
:10020A00E0918D01E150E0938D0110C0AA93EA9329
:10021A00EFB7EA93E0918A01EF5FE0938A01A09138
:10022A008A01A43018F0E0E0E0938A01E991EFBF77
:10023A00E991A99118951A930A93BB9AC39A8DE0EA
:10024A008A95F1F7C3988EEE92E00197F1F7C39A77
:10025A00BB9888EC8A95F1F7E6B3E870F0E00E9463
:10026A0030088F0184EF91E00197F1F7ABC2899AC8
:10027A00EFEFE7BBE0E30E94D10585E38A95F1F74A
:10028A00C198C0980E94DB050E94DB05E0E2E8BB4A
:10029A000E94DB05A0E0BA99A1E0EA2FE03011F450
:1002AA00BA9801C0BA9A08950E949108EFE0E7BB94
:1002BA0018B3187018BBC19AC09842DF84E08A95B7
:1002CA00F1F706B347DF3CDF36B344DF07FDF0CF73
:1002DA008BE18A95F1F706C10E94E6050E94D105D5
:1002EA00E981E295E07FE12B0E94D105188159C08E
:1002FA000E94E6050E94F205E981E295E07FE12B82
:10030A000E94F20518814DC0B2DFA8E2E5DFA8E03D
:10031A00E3DFA1E0E1DFA6E0DFDFACE0DDDFA2E0C2
:10032A0001C0A1E0D9DF0895AA93A881E1DF21964F
:10033A000895BA93AA93EB81EA93AB810CD0A88172
:10034A00B981EC91E03031F0ED91A883B983AE2FF9
:10035A00EBDFF5CFC9C0AA93E981F0E0E130A0E074
:10036A00FA0729F4A881A058A150B6DF1AC0E230D2
:10037A00A0E0FA0729F4A881A054A150ADDF11C06A
:10038A00E330A0E0FA0729F4A881AC56A150A4DF13
:10039A0008C0E430A0E0FA0721F4A881AC52A150C9
:1003AA009BDF229608950E94910810E020E030E039
:1003BA002830E0E03E07F4F4BB9AC39A81E08A95BC
:1003CA00F1F7C39881E08A95F1F7C39ABB9889E05F
:1003DA008A95F1F7E6B3E870F0E00E943008AE2F94
:1003EA00E22F0E941F081E2B8DE58A95F1F72F5FD9
:1003FA003F4FDECFE12F76C0AA931A930A93BB9A96
:10040A0000E010E00830E0E01E07ECF4C39A81E057
:10041A008A95F1F7C398E02FA1E0B0E00E9427087F
:10042A00AA81B0E0EA23FB23309711F0C39A01C0F6
:10043A00C3988DE58A95F1F7C39A8DE08A95F1F70D
:10044A000F5F1F4FDFCF8DE08A95F1F7D8C10E9469
:10045A009108F894F0DEACECCFDFA4E4CDDF789419
:10046A00A8ECB0E00E948206F894E5DEACECC4DFAA
:10047A00AEEBC2DF98DF1E2F96DF0E2F7894E02FA7
:10048A00E87F49F0E1E07E2E009510951F5FEFEFBF
:10049A00E11708F40F5F202F332727703070A02F41
:1004AA00B0E0E0E0F1E00E944A08DF01E12FF0E06D
:1004BA00EA0FFB1F0E943D080E94F206A0E0B0E08E
:1004CA0080E29FE30E947C07A0E0B0E080E09FE327
:1004DA000E942C070E94BB069F01D901EAE0F0E0C6
:1004EA000E9462080E9498082496089578940CDF66
:1004FA0018DFE8E5EABBE9E4EBBB8E98969A8F9899
:10050A00979A889A909AEBB7E06EEBBFEAE0E5BF5C
:10051A00E0E0E4BFE0EEEABFDC989098DB98DE9872
:10052A00A8ECB0E00E948206DC9A909ADB9ADE98E8
:10053A008EDFE0938801F0938901A1E00E94FC0517
:10054A00E0937E01F0937F016093800170938101B3
:10055A00A0917E01B0917F018091800190918101EB
:10056A000E941B060E94B9066F01AAE0B0E00E9431
:10057A008206A0E00E94FC05E0938201F0938301C9
:10058A006093840170938501A0918201B0918301E7
:10059A0080918401909185010E941B06A6E8B1E032
:1005AA000E94B906ED93FC93A4E1B0E00E94820692
:1005BA00E0E6F1E0FA93EA93E4E7F0E0FA93EA93EB
:1005CA00F6010E943206E0918601F09187010E94AD
:1005DA003206E0918801F09189010E9432068CE08E
:1005EA000E947C056096E1E0EA93E2E0EA93A0E6E5
:1005FA00B1E09FDEA0918A01A13029F40E9437065A
:10060A00E6E8F0E016C0A0918A01A23029F40E941F
:10061A003706EAE9F0E00DC0A0918A01A33029F477
:10062A000E943706EEEAF0E004C00E943706E2ECC8
:10063A00F0E0FA93EA93E0918B01F0E00E9432062F
:10064A00E0918C01F0E00E943206E0918D01F0E029
:10065A000E9432068CE00E947C056096E0918B0134
:10066A00D601F0E0EA17FB0710F0DC9801C0DC9A2B
:10067A00E0918C01A0918601B0918701F0E0EA1720
:10068A00FB0710F0909801C0909A0E943C06AE17A2
:10069A00BF0710F4DB9809C00E943C06EA17FB0763
:1006AA0018F4DB9ADE9802C0DB9ADE9AE2E0EA935B
:1006BA00E1E0EA93AEE6B1E03CDE3ACFFFCFA198A3
:1006CA00A99AA5E0B0E00E9482060895A19A01C005
:1006DA00A09A87E08A95F1F708950E944406A99A9C
:1006EA000E944806A9980E944D0608950E94440651
:1006FA00A998A8980E945206A99A0895AA931A93AB
:10070A000A930E94440600E8003059F0EA81E02387
:10071A0011F4A99801C0A99A0E945206A8980695B0
:10072A00F3CFA99A8DE08A95F1F7C9DF0E944806AE
:10073A00E0E09999E1E01E2F0E944D06E12FE09535
:10074A005EC01A930A930E944406A99AB8DF10E879
:10075A00103089F00E945206999904C0E12FE09561
:10076A000E2301C0012B0E944D06B0DF8DE08A9551
:10077A00F1F71695EDCFA9981EC01A930A93A6DF32
:10078A00A7DFA99A10E8103089F08DE08A95F1F771
:10079A0096DF0E945206999904C0E12FE0950E2334
:1007AA0001C0012B0E944D061695EDCF8FDF8DE01B
:1007BA008A95F1F7A99A8DE08A95F1F70E94480681
:1007CA00A898E02F099119910895AA931A930A9368
:1007DA0010E000E082DFA0E991DF1E2F1030D9F38C
:1007EA00EA81AE2F8BDF82DF78DFA1E987DF1E2F58
:1007FA001030D9F3A6DFC1DF0E2F78DFE02F198181
:10080A00088123960895BA93AA931A930A93AA8100
:10081A00BB8112960E947508309759F1AA81BB8153
:10082A0014960E9475088F01309761F00230E0E05B
:10083A001E0798F0F80131978F01AA81BB8114969F
:10084A00ED93FC93AA81BB811296ED91FD913196AD
:10085A00FE93EE933197AC81A083AA81BB810E945B
:10086A007508FF232AF0ED91FD913196FE93EE93E0
:10087A0006C0AA81BB81EFEFFFEFED93FC931981CC
:10088A00088125960895BA93AA9326970E948F08FD
:10089A0010E0AC85BD85E0E0F0E0ED93FC93EA89D9
:1008AA00FB893196EA8BFB8B3197E4912E2FE0304E
:1008BA0009F415C1E12FE03039F4253211F411E0C1
:1008CA0002C00E9456060AC1E130A9F4253219F481
:1008DA000E94560602C112E040E000E02D3211F4F7
:1008EA0001E0FCC02B3211F44BE2F8C0203211F4C3
:1008FA0040E2F4C002C0E23039F450E013E02033A1
:10090A0011F40068EBC003C0E33009F0E7C02033FC
:10091A0010F02A3308F007C0AAE05A9F502DE22FA0
:10092A00E0535E0FDBC0E22FE33649F40E945D0616
:10093A00E889F989A481AA930E946306CEC0E337A5
:10094A0041F40E945D060E9469060E94B0051E2FAE
:10095A000AC0E03761F40E945D060E9469060E949F
:10096A00BC051E2F086002600F7730E034C0E43601
:10097A0011F0E93611F4046002C0E53731F4E4E518
:10098A00F0E0EE83FF8315E00CC0E83511F408604F
:10099A0003C0E83709F0A1C0EEE5F0E0EE83FF837B
:1009AA0014E002FF14C00E945D060E947306AB8524
:1009BA00AA233AF4EA85FB850E941308EA87FB8793
:1009CA004DE2403011F01F5F01C00B7F04C00E944E
:1009DA005D060E94730600FD11C0151778F407FF23
:1009EA0008C002FF04C00B7F242F115001C020E36E
:1009FA0001C020E20E9456065150EFCF312F01FF6D
:100A0A0017C03030A1F003FF06C0EE81FF812591A7
:100A1A00EE83FF8305C0AE81BF812D91AE83BF8374
:100A2A000E945606503009F051503150EACF4BC05F
:100A3A0020E3EE81FF810E947908E887F987EE8139
:100A4A00FF813296EE83FF83E885F985AA85BB8507
:100A5A00AE17BF0750F02F5FA885B985EA85FB85D9
:100A6A00EA1BFB0BEA87FB87EFCF2A3328F003FF49
:100A7A0002C0295F01C0295D04FD1AC0213320F498
:100A8A00A885B985119709F409C0531710F000FF1A
:100A9A0001C013C020E207FF0BC020E3006102FF80
:100AAA0007C00B7F4A930E946306503009F05150E9
:100ABA000E945606503009F051503150A885B98528
:100ACA00129708F0B5CF00FF08C0503031F05150EE
:100ADA00E0E2EA930E946306F8CF10E0E0CEAC852C
:100AEA00BD850E9475080E94960864960895FF9233
:100AFA00F82E26970E9491080E947B06309719F4D7
:100B0A00EFEFFFEF23C0DE0116960E940F088D015A
:100B1A000E947B06EE83FF83E0E0E887E987DE0137
:100B2A001A960E940F080E947508FA93EA931A937C
:100B3A000A93E8E0F4E0FA93EA93DE011A96A3DE58
:100B4A009F01AE81BF81E0E0EC93F9010E94980811
:100B5A002A96FF900895BA93AA93A991B991EE277C
:100B6A00FF276D91662311F03196FBCF0895BA9352
:100B7A00AA93AA27BB27E991F9910590002011F0C1
:100B8A001196FBCFFD010895AA93EA93EFB7EA9372
:100B9A00A0918A01A1300895E8BBC198C0980E942B
:100BAA00A5008DE08A95F1F70C94AF000E94A5008C
:100BBA008DE08A95F1F70E94AF0085E38A95F1F7F7
:100BCA000895AA931A930E945901EFEFE7BB18B34D
:100BDA001870E981E07FE12B0895E8BBC198C09ABB
:100BEA000E94A5008DE08A95F1F70C94AF000E944F
:100BFA00EA034E2EFF27662777270E94F206A0E017
:100C0A00B0E080EA90E40E947C07DF01CB01E0E0DB
:100C1A00F0E06FE773E40E94CA07A0E0B0E080EA60
:100C2A0090E40E9482080E9425070895E0E0F0E01F
:100C3A0066EC72E40E947C070E94B9066627772751
:100C4A00662777270E94F206DF01CB01E0E0F0E099
:100C5A0060EA70E40E94CA070895662777270E940F
:100C6A007D080895EEE6F1E0FA93EA930895E0919B
:100C7A008D01A0918801B0918901F0E008950E9448
:100C8A006D030C946B03A89A8DE08A95F1F7089589
:100C9A008DE08A95F1F7A89808958DE08A95F1F785
:100CAA00F2CF2A93AD85BE85EF85F8890995089517
:100CBA00E889F9893497E88BF98B0895AD85BE8563
:100CCA00EF85F88909950895A889B98914960E942B
:100CDA007508EE83FF83AE81BF810895A889B9891B
:100CEA0014960E947508EA87FB870895DE011C9610
:100CFA000E940F080E9475080895109639F088EE30
:100D0A0093E00197F1F7A8951197C9F7089555232C
:100D1A0042F4503811F4E0FF04C03196691F791F7C
:100D2A006BF050E8572711F45F93CFC05F3F31F063
:100D3A00660F000C57956795752F08955F930020ED
:100D4A000AF0CFC0C8C050E8192E1522880F991F83
:100D5A009527550F879550E8072E0522660F771FAE
:100D6A007527550F67950895689401C0E8945F93B5
:100D7A00F2DF703818F07F3F08F4A7C056E1571B1E
:100D8A00AAF4519558300EF4593030F0EFEFFFEFD6
:100D9A006FEF7FE777F91AC077275523B9F0EE0F7F
:100DAA00FF1F661F771F5A95D1F710C07727583053
:100DBA0028F0EF2FF62F672F5850F9CF552331F02F
:100DCA0076956795F795E7955A95D1F700200AF435
:100DDA0029D15F910895689401C0E89430976040E2
:100DEA007040B1F0002426F0772312F400941AD14F
:100DFA00172E7EE1112032F07A95EE0FFF1F661F43
:100E0A00111CF9CFEF2FF62F612D5F938ADF5F91C7
:100E1A0008954F93AF01FD01DA01AB01BC01CA018C
:100E2A00402D012C142E4F910895EA0FFB1F681FC5
:100E3A000895E095F0956095EF5FFF4F6F4F089525
:100E4A005F9381DF903871F150E8152604C05F93F3
:100E5A007ADF903839F1703821F1572F591B2BF16D
:100E6A0012F4D7DFFACF583118F0AA27BB27882700
:100E7A00583028F0AB2FB82F88275850F9CF552370
:100E8A0029F08695B795A7955A95D9F7502D5125EA
:100E9A0072F0CBDF38F46795F795E795739513F4FD
:100EAA0020C0B7DF3EDF5F910895D8F7FBCFEA1B7A
:100EBA00FB0B680B51F010F40094BBDF662392F32E
:100ECA00EE0FFF1F661F7A95CBF7EE27FF276627DF
:100EDA0077275F910895EFEFFFEF6FE77FEF5F915D
:100EEA000895EFEFFFEF6FE77FE75F9108955F9354
:100EFA002ADF703851F3903841F301240894791F9E
:100F0A0023F41CF300203AF3ECCF0F921F932F9394
:100F1A003F934F93112722279927689FA0018F9FFC
:100F2A00302D410D591F6B9F300D411D591F8E9F4A
:100F3A0027D0BF9F25D06A9F23D0BE9F1DD0AF9FC9
:100F4A001BD0AE9F110D291F391F491F591FE32FAF
:100F5A00F42F652F522F4F913F912F911F910F9090
:100F6A0066232AF0550FEE1FFF1F661F02C07395F6
:100F7A004BF2CDDE5F910895100D211D391F02C07D
:100F8A00200D311D491F591F08955F93DCDE70380B
:100F9A0021F411200AF49FCFA4CF903809F495CFF9
:100FAA0001240894970B1BF4D4F30020F3CF792F74
:100FBA001F932F933F934F931124112722273327EF
:100FCA004427552790E2AE17BF078607410730F03E
:100FDA00AE1BBF0B860B410B089401C08894551FAA
:100FEA00221F331F111CAA1FBB1F881F441F9A955B
:100FFA0051F7F901612D4F913F912F911F9166236E
:10100A0032F0550FEE1FFF1F661F7A9543F27FDEFF
:10101A005F9108950024AF0DB01D0895F195E195F3
:10102A00F0400895F09560957095E195FF4F6F4FE8
:10103A007F4F0895EE230E2EEA2F19F0EE0F0A9431
:10104A00E9F70895EE230E2EFD0121F0EE0FFF1FA2
:10105A000A94E1F70895F595E795F595E795F595DD
:10106A00E7950895FE2FFF0FFF0B6F2F7F2F08952F
:10107A006F2F660F660B762F0895FA9FF02DEB9F60
:10108A00F00DEA9FE02DF10D08951CD0F6DF0EF465
:10109A00C5DF08950024112490E1AA0FBB1F001C8C
:1010AA00111C0E1A1F0A18F40E0E1F1E01C0A16091
:1010BA009A9599F7FD01D001089504D0EBDF0EF45B
:1010CA00ADDF0895E894F7FF02C0A8DF6894B7FF80
:1010DA0006C0A095B095119600F8039400FA0895F9
:1010EA00ED91FC91119708950590F491E02D0895E2
:1010FA007A936A93FA93EA930895182E862F612DAC
:10110A00192E972F712D1B2EBF2FF12D1A2EAE2FB0
:10111A00E12D08955A934A933A932A931A930A937C
:10112A0008955D814C813B812A8119810881089546
:00000001FF
